:020000040800F2
:10000000080D0020A1010008A9010008AB010008AB
:1000100000000000000000000000000000000000E0
:10002000000000000000000000000000AD0100081A
:1000300000000000000000002D170008B1010008BA
:10004000B301000800000000B3010008B30100087C
:10005000B301000839110008B3010008B30100081A
:1000600000000000B3010008B3010008B30100085C
:10007000B3010008B3010008B3010008000000004C
:10008000DD1900080000000000000000B3010008B6
:10009000B3010008B3010008B3010008B301000870
:1000A000B3010008B3010008B3010008151C0008E3
:1000B000B301000800F002F800F047F80CA030C8C7
:1000C000083824182D18A246671EAB4654465D46D4
:1000D000AC4201D100F039F87E460F3E0FCCB64657
:1000E0000126334200D0FB1AA246AB4633431847E1
:1000F0006C3000008C300000103A02D378C878C110
:10010000FAD8520701D330C830C101D504680C6059
:10011000704700000023002400250026103A01D378
:1001200078C1FBD8520700D330C100D50B607047AF
:100130001FB500F0C3F904000020002101F0F0FE1B
:10014000401C60601FBD10B510BD00F051FA114693
:10015000FFF7EEFF01F0BEFE00F069FA03B4FFF70F
:10016000F2FF03BC00F06CFA70B505460C4616466B
:1001700002E00FCC0FC5103E102EFAD2082E02D38B
:1001800003CC03C5083E042E07D301CC01C5361F9E
:1001900003E021782970641C6D1C761EF9D270BDB5
:1001A0000748804707480047FEE7FEE7FEE7FEE70F
:1001B000FEE7FEE704480549034A054B7047000087
:1001C0008D190008B5000008080B0020080D00205C
:1001D000080B002010B500F071F9001D10BD00BF24
:1001E000411D0000431A70B593421BD28918801834
:1001F00004E0491E401E0B78521E03709307F8D18D
:1002000006E01039103878C9103978C01038103A23
:10021000102AF6D203E0091F001F0B680360121FAB
:10022000F9D570BDFFF7A0FF70BDF8B506461446BE
:100230000843800707D0751AA54219D20819102D56
:1002400013D2311907E03046FFF7CCFFF8BD401E4E
:10025000491E02780A70641EF9D2F8BD471B2A466F
:10026000394600F02FF9641B3846A542F6D3011B2E
:100270002246304600F026F9F8BDD2B210B513027E
:100280009A1813049A1800F00EF810BD01E004C08B
:10029000091F0429FBD28B0701D50280801CC907E6
:1002A00000D00270704700290BD0C30702D0027043
:1002B000401C491E022904D3830702D50280801CFA
:1002C000891EE3E70022EEE70022DFE700220309B0
:1002D0008B4273D3030A8B4258D3030B8B423CD31C
:1002E000030C8B4221D312E003460B437FD4002240
:1002F00043088B4274D303098B425FD3030A8B42BA
:1003000044D3030B8B4228D3030C8B420DD3FF2223
:10031000090212BA030C8B4202D31212090265D0F1
:10032000030B8B4219D300E0090AC30B8B4201D3A4
:10033000CB03C01A5241830B8B4201D38B03C01AEB
:100340005241430B8B4201D34B03C01A5241030B62
:100350008B4201D30B03C01A5241C30A8B4201D313
:10036000CB02C01A5241830A8B4201D38B02C01ABE
:100370005241430A8B4201D34B02C01A5241030A35
:100380008B4201D30B02C01A5241CDD2C3098B421A
:1003900001D3CB01C01A524183098B4201D38B0197
:1003A000C01A524143098B4201D34B01C01A52413A
:1003B00003098B4201D30B01C01A5241C3088B427F
:1003C00001D3CB00C01A524183088B4201D38B006A
:1003D000C01A524143088B4201D34B00C01A52410C
:1003E000411A00D201465241104670475DE0CA0FE3
:1003F00000D04942031000D34042534000229C46A3
:1004000003098B422DD3030A8B4212D3FC228901AC
:1004100012BA030A8B420CD3890192118B4208D382
:10042000890192118B4204D389013AD0921100E0E4
:100430008909C3098B4201D3CB01C01A52418309F8
:100440008B4201D38B01C01A524143098B4201D325
:100450004B01C01A524103098B4201D30B01C01A50
:100460005241C3088B4201D3CB00C01A52418308CA
:100470008B4201D38B00C01A5241D9D243088B4220
:1004800001D34B00C01A5241411A00D201466346C3
:1004900052415B10104601D34042002B00D5494227
:1004A000704763465B1000D3404201B50020C04650
:1004B000C04602BD70477047704700000048704753
:1004C000C80A0020F8B5042A2CD3830712D00B7871
:1004D000491C0370401C521E83070BD00B78491C2B
:1004E0000370401C521E830704D00B78491C037014
:1004F000401C521E8B079B0F05D0C91ADF0020231A
:10050000DE1B08C90AE0FFF72FFEF8BD1D4608C92B
:10051000FD401C46B4402C4310C0121F042AF5D2E3
:10052000F308C91A521EF0D40B78491C0370401C02
:10053000521EEAD40B78491C0370401C012AE4D4F3
:1005400009780170F8BD000000487047A80A002033
:1005500082078B079A4237D170B5920F0AD00324D5
:1005600002780B78401C491C002A2BD09A4229D1D2
:100570002042F5D11D4EF40104C808C9951B9543CE
:10058000254010D19A4207D104C808C9951B95434C
:10059000254008D19A42EFD012BA1BBA01209A42E4
:1005A00000D2404270BD12BA1BBA2DBA18241000F6
:1005B000E0401900E140401A05D12E00E64002D18A
:1005C000083CF4D1D01A70BD02780B78401C491C4D
:1005D000002A09D09A4207D102780B78401C491CA6
:1005E000002A01D09A42EFD0D01A704701010101D0
:1005F0007546FFF7A9FFAE46050069465346C00899
:10060000C000854618B020B5FFF7D4FD60BC0027B8
:100610004908B6460026C0C5C0C5C0C5C0C5C0C5CE
:10062000C0C5C0C5C0C5403D49008D46704710B526
:100630000446C046C0462046FFF790FD10BD0000AE
:1006400001491820ABBEFEE72600020070470000FB
:10065000002862D0F8B5314C0546202806D21B2D63
:1006600002D000F061FBF8BD012026E020782B4984
:100670000007000F00274E780528F4D201007944C6
:10068000097949188F4404081B1F02002770F8BD20
:10069000284601F0ABFBF8BD5B2D03D0284600F0E7
:1006A000D1FCF8BD1021E01CFFF70CFE70094001E1
:1006B000DF21A7700840607002202070F8BD032081
:1006C00020703F2D10D0FFF785FD0068415D134875
:1006D0004078C006C00E20290AD03B2D12D0A5704C
:1006E00000F0B2F82770F8BD202006436670F8BD10
:1006F0001028FCD20019C1780A2251434919303917
:10070000C170F8BD1028FCD20520C6410120C006EA
:1007100030181B21C8416070F8BD7047920A002054
:10072000F8B541493F480860404801784908490008
:10073000017001780222114301700178F722114003
:1007400001700178DF2529400170002444701D21CB
:10075000817037490A7992089200921C0A714C7094
:100760008C700A78334B1A704A785A708A789A706B
:10077000CA78D606DA78F60E520952013243CE789C
:100780002A40B606F60F76013243CE78BF277606AA
:10079000F60FB6013A403243DA7009798907890FBA
:1007A00019710178244ACB071178DB0F49084900F9
:1007B00019430378FD269B07DB0F5B00314019438B
:1007C0000378FB265B07DB0F9B003140194303785E
:1007D000F7261B07DB0FDB00314019430378EF26B8
:1007E000DB06DB0F1B0131401943037829409B06D0
:1007F000DB0F5B0119431170417851708178917062
:100800000E490C700E490C700078000701D5A0222B
:1008100000E020224B2149010A48FFF72EFD00F09D
:100820000FFBF8BDA11E0008D4000020C10000206D
:10083000C7000020CC000020C4000020920A002045
:10084000C0000020E0000020F8B5F74EF74B31461D
:10085000B7780A79F648F74DC9784D2F7ED00DDC70
:10086000413F0C2F7BD23C007C4424792419A744BF
:10087000243544515E7E98A176B5F6F4EA4C6C2F8F
:1008800064786DD00CDC632F70D004DC532F69D0FA
:10089000542F64D134E1662F65D0682F5FD19BE17E
:1008A0006D3F092F5BD238007844007900188744E7
:1008B000F85D565656F7F656F500002900D101218D
:1008C0002A789206827802D56B78D21AD2B28A42FE
:1008D0004CD38278511AC9B240783EE0002900D149
:1008E0000121AA786B78D21A8A423FDB82785118AC
:1008F000AA78C9B28A4239D3EEE70322B256002A57
:1009000000D10122417889184F292FDC8178407865
:1009100080180AE00322B256002A00D10122417851
:10092000914223DB81784078801AC0B215E0F178DB
:100930000906090E00D10121AA786B78D21A8A42E1
:1009400014DB82785118AA78C9B28A420ED30446C1
:10095000407800F001FFA178002005E0C4E0A6E1A6
:10096000F5E003E0C8E025E000F0F6FEF8BDF17820
:100970000906090E00D101212A789206827802D553
:100980006B78D21AD2B28A42F0D304468078401AE9
:10099000C1B2607800F0E0FEA178002000F0DCFE3B
:1009A000F8BD0322B256002A00D101228178521EDE
:1009B000D0B2D2E7002A00D10122002900D10121C2
:1009C000521ED0B2491E2A78C9B2920602D56A7860
:1009D0005118C9B2AA788A42E2D3BEE7002908D0EA
:1009E00001291FD00229DBD1287800072CD5A022AD
:1009F0002BE02978090701D5A02200E02022817888
:100A00001D24611A50246143447850252C1B091978
:100A1000447880786843C0182018FFF72EFC00F057
:100A20000FFAF8BD2978090701D5A02200E020229D
:100A30004178807850235843401C09187B48FFF7C1
:100A40001CFC00F0FDF9F8BD20224B21490177483C
:100A5000FFF713FC00F0F4F9F8BD3EE0FFE70029D2
:100A600008D001291ED00229F6D1297809072AD5F4
:100A7000A02229E02978090701D5A02200E0202240
:100A800044780146807850256843C018497820187A
:100A9000691AFFF7F2FB00F0D3F9F8BD54E050E01B
:100AA000E2E031E02978090701D5A02200E0202208
:100AB0004178807850246043C018491CFFF7DDFB63
:100AC00000F0BEF9E9E72022807850214843C018A1
:100AD000FFF7D3FB00F0B4F9DFE7A978044680788C
:100AE00000F0BAFEA178E0E0A9780446807800F032
:100AF000DDFEA178002030E7084600F003FFCCE7D8
:100B0000084600F071FEC8E700200823F722E4063B
:100B1000E40E3118C978002904D0072905D01B2913
:100B20000AD106E02978114001E02978194329709B
:100B300002E0297811402970401CC0B28442E8D2FA
:100B4000ABE700F0E3F9A8E73B488178C4E600246E
:100B500007463019C07807281ED004DC042833D09B
:100B6000062831D104E014281AD019282CD11CE011
:100B70007078800628D52878DF2108402870002268
:100B800028781146800600D56978A87888421BD35A
:100B9000104600F0E1FD17E028784008400002E030
:100BA0002878FB21084028700EE0707880060BD56D
:100BB000387980088000387139787A78B87850238D
:100BC00058431A4BC01811547078641CC006E4B224
:100BD000C00EA042BDD260E7002401273019C078C2
:100BE00007281ED004DC042836D0062834D104E0BF
:100BF000142823D019282FD125E0707880062BD512
:100C00002878202108432870002228781146800681
:100C100000D56978A87888421ED3104600F09CFD64
:100C20001AE0287838430CE0920A0020E000002007
:100C3000C7000020C1000020CC000020287804213B
:100C40000843287008E07078800605D5334801799C
:100C500089088900891C01717078641CC006E4B29F
:100C6000C00EA042BAD218E769706878002802D096
:100C700068781E2801D901206870AA70A878002819
:100C800002D0A8781E2801D91E20A8706878401EBE
:100C90006870A878401EA870A8786978884203D246
:100CA0006878A9786970A8706978002055E61CA456
:100CB00002E0641C01F09AF8002C02D02078002891
:100CC000F7D17078800602D53F2001F08FF800241C
:100CD0003019C578092D05D90A212846FFF7F6FAFB
:100CE00001F0CEF80A212846FFF7F0FA0846303026
:100CF00001F07CF87078C006C00EA04202D93B20FB
:100D000001F074F87078641CC006E4B2C00EA04212
:100D1000DED2B07801F06AF8BFE60000C70000201C
:100D20003C4553433E5B000010B504461C2C75D275
:100D3000200078440079001887446F7070707077D5
:100D400070770D2D4040405A6065707770777070F5
:100D500070707770776C37484178002907D04278F7
:100D6000012A62DB81784078401EC0B243E03249FC
:100D70000A78D20759D00A78920604D58278497841
:100D8000511AC9B200E0817800294ED08078401E07
:100D9000C1B24F202FE02748407808214007400F7C
:100DA000081A411ECCB200283FD0202001F01EF8C6
:100DB0002046641EE4B20028F7D136E01E4CA0782D
:100DC0006178401A01280ADBA01D8178A278491CAD
:100DD000C9B28A4203D3407800F0BEFC05E0207817
:100DE000800702D5012000F08DFD207840071CD53A
:100DF00010488178002000F0AFFC16E00E48017822
:100E00001022114303E00C480178EF2211400170D9
:100E10000BE003E009490120087010BD5E2000F0DE
:100E2000E5FF4034E0B200F0E1FF04490020087023
:100E300010BD0000C7000020C1000020920A002061
:100E40000948C178490949011931C170C178DF22C7
:100E50001140C1704278817850235943034BC9181F
:100E6000515C017070470000C7000020E0000020C6
:100E700030B522480179224A8908137989009B07F5
:100E80009B0F194301711F4801781F4B4C081978BB
:100E90006400CD07ED0F2C4304700478FD252C4031
:100EA0008D07ED0F6D002C4304700478FB252C405A
:100EB0004D07ED0FAD002C4304700478F7252C404E
:100EC0000D07ED0FED002C4304700478EF252C4046
:100ED000CD06ED0F2D012C43047004788906DF2523
:100EE000C90F2C4049010C4304705978417099781E
:100EF00081709178507800F02FFC30BDC700002041
:100F0000CC000020C1000020C400002030B42A49D9
:100F100008782A4A10704878507088789070C8789D
:100F2000C306D078DB0E400940011843CB789B06FE
:100F3000DB0F5C01DF2318402043CC78BF2564061B
:100F4000E40FA40128402043D07008791C49800791
:100F5000800F107108781B4AC4071078E40F40080E
:100F6000400020430C78FD25A407E40F64002840CE
:100F700020430C78FB256407E40FA400284020439D
:100F80000C78F7252407E40FE400284020430C7870
:100F9000EF25E406E40F2401284020430C78184094
:100FA000A406E40F640120431070487850708878DC
:100FB000907030BC70470000C7000020CC000020BB
:100FC000C1000020C400002030B41848C178DF22DE
:100FD0001140C170C1784A06154907D50378447895
:100FE000827850256A435118635410E002799207C1
:100FF0000DD002799207920F012A15D00278802332
:101000005A404478837850256B4359186254C1780C
:101010004906C917491CC9074A0EC178BF231940A0
:101020001143C17030BC70475F22EAE7C70000205F
:10103000E00000200249087008780028FCD17047C1
:1010400000000020F8B5374D002607463D2866D041
:1010500011DC0420362F46D006DC282F43D0292F60
:1010600041D0352F17D13EE0372F36D0382F37D02B
:101070003C2F10D153E04D2F12D006DC3E2F4ED026
:10108000442F26D0452F06D10EE04E2F47D04F2FAC
:1010900045D0632F01D024A42AE0FFF741FB3EE0B6
:1010A000012000F0A1FB3AE0214CA178304600F08D
:1010B00053FB204881784278891A012909DBA178FD
:1010C0008078491CC9B2884203D3607800F044FBA1
:1010D00025E0012000F016FC21E0FFF717FF1EE0DD
:1010E000FFF7C6FE1BE02870F8BD641C00F07EFE12
:1010F000002C02D020780028F7D138093030392868
:1011000000D9C01D00F072FE3807000F30303928BA
:1011100000D9C01D00F06AFE3E2000F067FE2E7070
:10112000F8BD0000920A00203C4553433E3C0000BD
:10113000C7000020C100002070B54349022048616B
:10114000424C60780921C30901228720C906002585
:10115000002B21D0637866785B061B0F5B1C1B0796
:101160005B0E06401E4366707006000F0C2804D00C
:101170002088C00704D0012004E08A61258070BD6A
:10118000012000048861208821884005800DC90A5B
:10119000C9020143218070BD2D4B1E78002E00D165
:1011A000258009261E70098AC9070CD0218863781A
:1011B0005B061B0F9A40114349052288490DD20A4C
:1011C000D2020A43228061784906090F491C0907A7
:1011D0004A0E61780140114361704806000F0B28E8
:1011E000D9D12088C00728D12088400525D520885E
:1011F0000022C005000E11460423C607F60FB218E0
:101200004008C607F60F71184008D2B2C9B25B1E7B
:10121000F3D15018C00701D0002001E001204002A6
:1012200021888905C90F4902884206D12088C00556
:10123000010E084800F02DF803E0FF21054800F0FA
:1012400028F8258070BD0000000401405E000020E9
:101250000100002060000020002181704170704773
:10126000427883789A420AD082780378521C1A40D6
:1012700082708278C01C105C0870012070470020CA
:10128000704741788078814201D00120704700206A
:10129000704710B4437802785B1C84781340A342F3
:1012A00009D043785B1C134043704278C01C115432
:1012B00010BC0120704710BC002070474178827834
:1012C0009142FBD081780278491C1140817081786D
:1012D000C01C085C7047000010B5124900208860EF
:1012E00011490222CA600B6813430B600F49088042
:1012F0000F4988800F48FFF7AFFF0F490868FF22AA
:101300001202904303229203104308600B492020ED
:10131000086007480322017811430170FF2000F0A4
:101320000FF810BD00000140000401405E000020E5
:10133000580000206000002004E400E000E100E02C
:10134000F8B5FF24254E09270546FF0670784006AC
:10135000000F3AD1388A800737D52149202008600C
:101360000022284611460423C407E40FA2184008AF
:10137000C407E40F61184008D2B2C9B25B1EF3D1B2
:101380005018C00701D0002001E001204002690090
:1013900008430121890208433188C90AC90201436F
:1013A000318070788021084370700E4920200860D9
:1013B0000420FFF73FFE01204004B8610420FFF73E
:1013C00039FE0220B8610120F8BD0720FFF732FE88
:1013D000641E2406240EB9D10020F8BD5E00002052
:1013E00080E100E000E100E0F8B5C648FFF766FFE5
:1013F0000325C54C0246FF280FD02346AA2A0ED04B
:1014000020788107890F16D001291AD0022973D0BC
:1014100003290FD1FA2A70D063E1207830E02078D8
:10142000022180088000801C2070F0205870997084
:10143000FFF786FFF8BDFA2A22D080088000401C02
:101440002070E02A20D0F02A23D0002AF2D0AE4823
:1014500081885020CB05002BAC4B60DA902A00D25B
:101460009A5CA94B0C061AD5A948122500240678C7
:1014700096421CD0641CE4B2801CAC42F7D325E138
:1014800028432070FF20D3E7988880210843988064
:10149000F8BD9888FF21013108439880F8BD8C057C
:1014A0000DD59C480C2500240678964201D142783F
:1014B0000FE0641CE4B2801CAC42F5D306E10142AB
:1014C00003D09548592A03D303E09448592A00D2FF
:1014D000825CE03A0E2A57D2100078440079001856
:1014E0008744060C0C10F4F4F41919F4F414F406FF
:1014F000082081439980E9E0EFE0FDE0102081437E
:101500009980E3E0202081439980DFE001204002C0
:1015100081439980DAE0402081439980D6E0902A87
:1015200000D29A5C8B050DD57A480C2500230678ED
:10153000964201D1407811E05B1CDBB2801CAB42CB
:10154000F5D3C3E0014204D0734B1046592A04D3AB
:1015500004E0724B1046592A00D2985C002813D040
:101560000346E03B0E2B57D21D007D442D796D19AB
:10157000AF44060B0B101A2B3C4D4D52ACACAC06D5
:101580006148082211438180A0E05F481022114386
:1015900081809BE05C480A0602D50122520200E0ED
:1015A00020220A43828091E0574A042041409180E2
:1015B0002078490780088000801C2070ED20507042
:1015C000490F9170FFF7BCFE80E04F4A0220414076
:1015D00091802078490780088000801C2070ED20D1
:1015E0005070490F9170FFF7ABFE6FE0464A012043
:1015F000414091802078490780088000801C20703D
:10160000ED205070490F9170FFF79AFE5EE03E4862
:1016100040221143818059E0E92814D188070BD575
:101620003F480E250023047894420BD05B1CDBB2AC
:10163000801CAB42F7D349E03A480E2500230478DA
:10164000944213D14078002840D0802830D20A0735
:1016500019D5014640391F2902D92139192935D810
:1016600001466139192907D8202106E05B1CDBB24D
:10167000801CAB42E3D329E00021401A4038C0B2BD
:1016800000F0A0F822E00246413A192A02D9203A95
:10169000192A0AD8490708D501466139192901D8FC
:1016A000202100E00021401AC0B200F08BF80DE0CC
:1016B000E0280BD28038C4B2162C07D21B2000F0D1
:1016C00081F81948A100405800F062F80E48FF2246
:1016D0008188813291438180F8BDFA2A04D0FE2AA4
:1016E00008D0800880000AE09878FFF729FE20786B
:1016F000284304E058789BE680088000401C207056
:10170000F8BD000060000020580000204C1F0008B9
:10171000DE200008DC1F00084D200008F41F000830
:10172000A6200008C2200008680000200120074A07
:10173000C006106020211160054A536803435360BE
:1017400030BF044A106011607047000080E100E083
:1017500000ED00E000E100E070B50A4A1478557829
:10176000937850267343084E9B19EC544F2808D8A1
:101770001D2906D850709170FFF762FB03490020C5
:10178000087070BDC7000020E0000020C0000020ED
:10179000F8B50446094E802709E0641C294608482C
:1017A000FFF777FD0028F9D0306838433060002C0F
:1017B00002D02578002DF0D1F8BD0000003801409E
:1017C0004500002010B5044621460548FFF761FD9D
:1017D0000028F9D00348016880221143016010BD40
:1017E0004500002000380140F8B500281DD0401EFB
:1017F000C5B2164F7C78B87815490A784B78897845
:1018000050267143134E89195A54A04208D9021B1D
:10181000502042436043811908465030FEF705FDD1
:101820003878000703D5A02202E00025E1E7202256
:1018300050204443A0195021FEF71FFDFFF700FB85
:1018400028466D1EEDB20028D4D1F8BDC10000209D
:10185000C7000020E000002070B5114A14785578C8
:10186000927850235A430F4BD218AC545022424323
:10187000D418814206D90A1A502042432146201822
:10188000FEF7D3FC08480078000701D5A02200E04D
:10189000202220465021FEF7F0FCFFF7D1FA70BD60
:1018A000C7000020E0000020C100002070B50C46F9
:1018B00011490A784B788978502569430F4D4919A9
:1018C0005A54844207D9221A502148434A434019A6
:1018D0004118FEF7AAFC0A480078000701D5A022AB
:1018E00000E020225020444360195021FEF7C5FC3F
:1018F000FFF7A6FA70BD0000C7000020E00000203E
:10190000C1000020F8B500281CD0401EC7B21C4CF6
:101910006078A6781B490A784B7889785025694306
:10192000194D49195A54864207D9321A5021484351
:101930004A4340194118FEF778FC2078000703D588
:10194000A02202E00027E2E720225020464370193F
:101950005021FEF792FCFFF773FA2078000701D5BB
:10196000A02200E02022A1785020414348195021B4
:10197000FEF783FC38467F1EFFB20028C8D1F8BDB1
:10198000C1000020C7000020E00000201149112004
:1019900008601148016801221204114301600168C6
:1019A0008903FCD5426001680122120611430160DF
:1019B00001688901FCD541680222114341604168F8
:1019C0000907890F0229FAD1016849084900016015
:1019D000704700000020024000100240F8B5824D20
:1019E000288A834C43078148A17A00270918E27AA4
:1019F0006068002B57DA804B7E4E1E63D20745D0BD
:101A00007E4A1223801D867836018E5D9670C678D8
:101A100036018E5DD670067936018E5D1671467977
:101A2000001D36018E5D5671121D5B1EEBD1A07A32
:101A3000401CC0B2A072102803D1A7726068503059
:101A40006060A17A69480A1860686D4903781B01D3
:101A5000D35C4B7043781B01D35C8B7083781B0184
:101A6000D35CCB70C3781B01D35C0B7103791B0172
:101A7000D35C4B7143791B01D35C8B7183791B0160
:101A8000D35CCB71C0790001105C0872E07A8007EA
:101A900005D531215B48490101604014A883288A9B
:101AA000042188439EE02B8ADB077DD02689731CA6
:101AB00023814F4BDB7A5B085B00252E59D00BDC72
:101AC0004B4FFF7A3F07BC46BF0F022E0DD0042EAE
:101AD0001ED0242E5CD127E0FF3EFF3EB61F4BD028
:101AE000012E4BD0092E53D14CE001204005092195
:101AF000C90688616046810F2820002905D0022F81
:101B000003D0298B8143298342E0298B0143FAE7E3
:101B1000022F03D220210920C0068161FD2003404D
:101B2000E3723948606033E001231A43E2720378BC
:101B3000334A1B01CB5C537043781B01CB5C937021
:101B400083781B01CB5CD370C3781B01CB5C137112
:101B500003791B01CB5C537143791B01CB5C9371FF
:101B600083791B01CB5CD371C0790001085C1072D2
:101B70000EE00220024303E0E37209E0FD20024090
:101B8000E27205E02781A7722068002800D0804714
:101B9000E07A800716D51848016B490849000163AF
:101BA00052214163164900E01DE0C163FF21154841
:101BB000213101608014A883144841680122120772
:101BC0001143416012480178002902D00178491E72
:101BD00001704178002902D04178491E4170288A5D
:101BE000400840002882F8BD00040040022100089F
:101BF000D40000209130000000000240470A00207D
:101C0000400A002040040040E000002000ED00E019
:101C10000000002038B50E4CE0690E4D800604D55A
:101C2000A888C1B20C48FFF734FBE069000608D56C
:101C300069460A48FFF714FB002803D0684600787D
:101C4000288138BD206880218843206038BD00008D
:101C500000380140203801400200002045000020EB
:101C600010B50F4881690122920311438161FF2160
:101C70000C48B33181812D2101600B48FFF7ECFA4C
:101C80000A48FFF7E9FA0A4801680902090AC20688
:101C90001143016001200749C006086010BD000023
:101CA00000100240003801400200002045000020E2
:101CB00018E400E000E100E03A4840693A4908438E
:101CC0003849486188693949084336498861C86993
:101CD000022108433349C86109213548C906086013
:101CE0000120000608620011C86003208880886116
:101CF000FF20113048620120C00388602D49082070
:101D00000860102008622C49042008602949082036
:101D100088602A49002008812949C020486368203A
:101D20000883D2208863284926480880002008813B
:101D3000192023498001C86289890520204A01436E
:101D40009181918A012211431D4A91821F498988FC
:101D5000D21311431D4A918019490988014318483B
:101D60000180C1211A48890001801A4981800188B7
:101D700040221143018019491748886318480168B7
:101D8000090A09020160174990020860164AD069E1
:101D9000FF231B04984301239B051843D06188054A
:101DA000086070470010024001004600015000002A
:101DB00055A528280004004800140048D40000203D
:101DC00000040040031000002004004040040040D4
:101DD00000300140120700000C30014000000240BA
:101DE00010E400E000E100E004ED00E0F8B5044696
:101DF00020480178C90604D521466039202900D23F
:101E0000CCB20178090701D580210C431A4E3178F4
:101E100001271A4D00291CD00178C9070BD0A978D9
:101E20008278914209D2A878401CC1B20020FFF705
:101E300093FC2C70F8BD2C7016E00078800708D554
:101E40000120FFF75FFDA9780020FFF785FC2C70CB
:101E5000F8BD2C7068784F2806D2A9786878401CA5
:101E6000C0B2FFF779FCF8BDA9786878FFF774FC79
:101E70003770F8BDC1000020C0000020C70000205E
:101E800070B504460A21FEF721FA0D46092C01D946
:101E9000FFF7F6FF28463030FFF7A8FF70BD0000BF
:101EA0000B48C178C278491CC906C90E52095201B3
:101EB0000A43C270C178C906C90E1E2907D3C1786A
:101EC00020221143C170C17849094901C17070478E
:101ED000C7000020FFF7F0FEFFF7C2FEFFF7FCF996
:101EE000FEF71EFC0B4C0C48FFF7CBF9002804D082
:101EF0000948FFF7E3F9FEF7ABFB0848FFF7C1F924
:101F0000002801D0FFF770FAE0788006EBD5FFF7E4
:101F10005BF8E8E7C7000020020000206000002016
:101F200010B500290AD00878002807D00548784461
:101F3000FEF70EFB002801D0002010BD02487844B7
:101F400010BD00004E12000046120000FF43413F4A
:101F50003D3B3C58644442403E0F295965382A7045
:101F60001D10025A66712C1F1E11035B672E2D2057
:101F70001205045C68392F211413065D6931302382
:101F80002215075E6A7232241608095F6B33251723
:101F9000180B0A606C34352627190C616D73287490
:101FA0001A0D626E3A361C1B752B63765556777880
:101FB000797A0E7B7C4F7D4B477E7F6F5253504C1E
:101FC0004D480145574E514A374946548081824118
:101FD0005485868788898A8B8C8D8E8F087B095BD8
:101FE0000A5D0B7D0C5C10401B7E1DE02AE136E291
:101FF00038E3567C001B31323334353637383930CC
:10200000DFB4080971776572747A75696F70FC2B9B
:102010000DE06173646667686A6B6CF6E45EE123E9
:1020200079786376626E6D2C2E2DE22AE320E480AF
:10203000818283848586878889E5E6E9E9E9E9E99B
:10204000E9E9E9E9E9E9E9E9005E3C8A8B001B215D
:1020500022A72425262F28293D3F600809515745EE
:1020600052545A55494F50DC2A0DE04153444647DB
:10207000484A4B4CD6C4B0E12759584356424E4DBE
:102080003B3A5FE22AE320E480818283848586876D
:102090008889E5E6E9E9E9E9E9E9E9E9E9E9E93031
:1020A0002E005C3E8A8B372A4737483849394A2DFB
:1020B0004B344C354D364E2B4F315032513352301C
:1020C000532E372A478C488D498E4A2D4B8F4C35DD
:1020D0004D904E2B4F9150925193529453951C0D0D
:1020E0001DED2AE7352F36E837EA38EB46EC478C0A
:1020F000488D498E4B8F4D904F91509251935294F1
:1021000053950000000000000000000000000000E7
:10211000000055AA55AA55AA55AA55AA55AA55AAC6
:1021200055AA0000000000FEFEFEFEFEFE000000BC
:1021300000000000000000000000FFFFFFFFFFFFA5
:10214000FFFFFFFFFFFFFFFFFFFF00000000000099
:10215000000000000000101038387C7CFEFE0000FB
:10216000000000000000FEFE7C7C383810100000EB
:102170000000000000040C1C3C7C3C1C0C04000013
:102180000000000000406070787C787060400000C3
:10219000000000000000FE0000FE0000FE00000045
:1021A000000018181818181818F80000000000008F
:1021B000000000000000000000F818181818181897
:1021C0001818000000000000001F18181818181830
:1021D0001818181818181818181F00000000000008
:1021E000000018181818181818FF181818181818B8
:1021F000181800183C7E1818181818181818180005
:102200000000001818181818181818187E3C180024
:10221000000000000000000000FF000000000000BF
:10222000000000183C7E1818181818187E3C18007A
:102230000000000000000000181818000000000056
:102240000000181818181818181F18181818181837
:10225000181818181818181818F81818181818181E
:10226000181818181818181818FF00000000000097
:10227000000000000000000000FF181818181818CF
:1022800018181818181818181818181818181818CE
:10229000181800000000000000000000000000000E
:1022A000000000000000000000000000000000002E
:1022B000000000000000000000000000000000001E
:1022C000000000000000000000000000000000000E
:1022D00000000000000000000000000000000000FE
:1022E00000000000000000000000000000000000EE
:1022F00000000000000000000000000000000000DE
:1023000000000000000000000000000000000000CD
:1023100000000000183C3C3C3C1818001818000055
:1023200000000036363636140000000000000000C1
:10233000000000006C6C6CFE6C6CFE6C6C6C000041
:102340000000000018187CC6C0783C06C67C18182F
:102350000000000000000062660C183066C6000035
:1023600000000000386C3830767ECCCCCC76000093
:102370000000000C0C0C1800000000000000000021
:10238000000000000C18303030303030180C0000E5
:102390000000000030180C0C0C0C0C0C1830000065
:1023A000000000000000006C38FE386C00000000E7
:1023B0000000000000000018187E1818000000003F
:1023C00000000000000000000000000C0C0C1800D1
:1023D000000000000000000000FE000000000000FF
:1023E00000000000000000000000000018180000BD
:1023F00000000000000002060C183060C0800000E1
:10240000000000007CC6C6CEDEF6E6C6C67C000034
:10241000000000001878181818181818187E000006
:10242000000000007CC6C6060C183060C6FE000026
:10243000000000007CC606063C060606C67C0000BE
:10244000000000000C1C3C6CCCCCFE0C0C1E0000F0
:1024500000000000FEC0C0C0FC060606C67C0000EE
:10246000000000007CC6C0C0FCC6C6C6C67C00001A
:1024700000000000FEC6060C18303030303000007E
:10248000000000007CC6C6C67CC6C6C6C67C00006E
:10249000000000007CC6C6C6C67E0606C67C0000DC
:1024A000000000000000000C0C00000C0C000000FC
:1024B000000000000000000C0C00000C0C0C1800C8
:1024C00000000000000C183060C06030180C0000E4
:1024D0000000000000000000FE00FE000000000000
:1024E00000000000006030180C060C18306000007E
:1024F000000000007CC6C60C181818001818000050
:10250000000000007CC6C6C6DEDEDEDCC07E000049
:1025100000000000386CC6C6C6FEC6C6C6C60000AF
:1025200000000000FC6666667C66666666FC00006D
:10253000000000003C66C2C0C0C0C0C2663C0000D3
:1025400000000000F86C6666666666666CF800005F
:1025500000000000FE6660647C64606066FE00004F
:1025600000000000FE6660647C64606060F0000053
:10257000000000007CC6C6C0C0C0CEC6C67C00003D
:1025800000000000C6C6C6C6FEC6C6C6C6C6000057
:10259000000000003C18181818181818183C000003
:1025A000000000003C181818181818D8D87000003F
:1025B00000000000C6C6CCD8F0F0D8CCC6C60000DB
:1025C00000000000F06060606060606266FE000015
:1025D00000000000C6C6EEEEFED6D6D6C6C6000087
:1025E00000000000C6C6E6E6F6DECECEC6C6000097
:1025F000000000007CC6C6C6C6C6C6C6C67C0000B3
:1026000000000000FC666666667C606060F00000AA
:10261000000000007CC6C6C6C6C6C6D6D67C06006C
:1026200000000000FC6666667C786C6666E600006A
:10263000000000007CC6C0C0701C0606C67C0000FE
:10264000000000007E5A181818181818183C0000CE
:1026500000000000C6C6C6C6C6C6C6C6C67C000008
:1026600000000000C6C6C6C6C6C6C66C381000004C
:1026700000000000C6C6C6D6D6D6FEEEC6C600000E
:1026800000000000C6C6C66C38386CC6C6C600005E
:102690000000000066666666663C1818183C00007C
:1026A00000000000FEC6860C183060C2C6FE0000A6
:1026B000000000007C60606060606060607C000022
:1026C00000000000000080C06030180C060200000E
:1026D000000000007C0C0C0C0C0C0C0C0C7C0000A2
:1026E00000000010386CC600000000000000000070
:1026F000000000000000000000000000000000FFDB
:102700000000001818180C00000000000000000075
:1027100000000000000000780C7CCCCCDC760000CF
:1027200000000000E060607C6666666666FC000093
:10273000000000000000007CC6C0C0C0C67C0000D5
:10274000000000001C0C0C7CCCCCCCCCCC7E00005F
:10275000000000000000007CC6C6FEC0C67C000071
:10276000000000001C363030FC3030303078000083
:102770000000000000000076CEC6C6CE7606C67CFD
:1027800000000000E060607C6666666666E6000049
:10279000000000001818003818181818183C00001D
:1027A000000000000C0C001C0C0C0C0C0CCCCC78A9
:1027B00000000000E0606066666C786C66E6000011
:1027C000000000001818181818181818181C000015
:1027D000000000000000006CFED6D6C6C6C6000091
:1027E00000000000000000DC6666666666660000A9
:1027F000000000000000007CC6C6C6C6C67C000003
:1028000000000000000000DC666666667C6060F028
:102810000000000000000076CCCCCCCC7C0C0C1E60
:1028200000000000000000DC6660606060F00000F6
:10283000000000000000007CC6C07C06C67C0000D2
:1028400000000000303030FC30303030361C0000EA
:1028500000000000000000CCCCCCCCCCCC7600003A
:1028600000000000000000C6C6C6C66C381000009C
:1028700000000000000000C6C6D6D6D6FE6C0000E0
:1028800000000000000000C6C66C386CC6C6000020
:1028900000000000000000C6C6C6C6CE7606C67C94
:1028A00000000000000000FE860C183062FE0000F0
:1028B000000000000E18181870181818180E0000E4
:1028C0000000000018181818001818181818000030
:1028D00000000000701818180E1818181870000062
:1028E0000000000076DC0000000000000000000096
:1028F000000000C0A0A0A0C0382030203808080880
:102900000E00FFFFFFFFFFFFFFFFFFFFFFFFFFFFC7
:10291000FFFFAA55AA55AA55AA55AA55AA55AA55C0
:10292000AA55FFFFFFFFFF010101010101FFFFFFAA
:10293000FFFFFFFFFFFFFFFFFFFF000000000000A1
:1029400000000000000000000000FFFFFFFFFFFF8D
:10295000FFFFFFFFFFFFEFEFC7C783830101FFFF0B
:10296000FFFFFFFFFFFF01018383C7C7EFEFFFFFFB
:10297000FFFFFFFFFFFBF3E3C383C3E3F3FBFFFFB3
:10298000FFFFFFFFFFBF9F8F8783878F9FBFFFFFE3
:10299000FFFFFFFFFFFF01FFFF01FFFF01FFFFFF41
:1029A000FFFFE7E7E7E7E7E7E707FFFFFFFFFFFFD7
:1029B000FFFFFFFFFFFFFFFFFF07E7E7E7E7E7E7AF
:1029C000E7E7FFFFFFFFFFFFFFE0E7E7E7E7E7E7F6
:1029D000E7E7E7E7E7E7E7E7E7E0FFFFFFFFFFFFFE
:1029E000FFFFE7E7E7E7E7E7E700E7E7E7E7E7E72E
:1029F000E7E7FFE7C381E7E7E7E7E7E7E7E7E7FFC1
:102A0000FFFFFFE7E7E7E7E7E7E7E7E781C3E7FF80
:102A1000FFFFFFFFFFFFFFFFFF00FFFFFFFFFFFFC5
:102A2000FFFFFFE7C381E7E7E7E7E7E781C3E7FFEA
:102A3000FFFFFFFFFFFFFFFFE7E7E7FFFFFFFFFFEE
:102A4000FFFFE7E7E7E7E7E7E7E0E7E7E7E7E7E7ED
:102A5000E7E7E7E7E7E7E7E7E707E7E7E7E7E7E7E6
:102A6000E7E7E7E7E7E7E7E7E700FFFFFFFFFFFF4D
:102A7000FFFFFFFFFFFFFFFFFF00E7E7E7E7E7E7F5
:102A8000E7E7E7E7E7E7E7E7E7E7E7E7E7E7E7E7D6
:102A9000E7E7FFFFFFFFFFFFFFFFFFFFFFFFFFFF76
:102AA000FFFFFFFFFFFFFFFFFFFFFFFFFFFFFFFF36
:102AB000FFFFFFFFFFFFFFFFFFFFFFFFFFFFFFFF26
:102AC000FFFFFFFFFFFFFFFFFFFFFFFFFFFFFFFF16
:102AD000FFFFFFFFFFFFFFFFFFFFFFFFFFFFFFFF06
:102AE000FFFFFFFFFFFFFFFFFFFFFFFFFFFFFFFFF6
:102AF000FFFFFFFFFFFFFFFFFFFFFFFFFFFFFFFFE6
:102B0000FFFFFFFFFFFFFFFFFFFFFFFFFFFFFFFFD5
:102B1000FFFFFFFFE7C3C3C3C3E7E7FFE7E7FFFF2D
:102B2000FFFFFFC9C9C9C9EBFFFFFFFFFFFFFFFFA1
:102B3000FFFFFFFF93939301939301939393FFFF01
:102B4000FFFFFFFFE7E783393F87C3F93983E7E7F3
:102B5000FFFFFFFFFFFFFF9D99F3E7CF9939FFFFCD
:102B6000FFFFFFFFC793C7CF898133333389FFFF4F
:102B7000FFFFFFF3F3F3E7FFFFFFFFFFFFFFFFFFA1
:102B8000FFFFFFFFF3E7CFCFCFCFCFCFE7F3FFFFBD
:102B9000FFFFFFFFCFE7F3F3F3F3F3F3E7CFFFFF1D
:102BA000FFFFFFFFFFFFFF93C701C793FFFFFFFF7B
:102BB000FFFFFFFFFFFFFFE7E781E7E7FFFFFFFF03
:102BC000FFFFFFFFFFFFFFFFFFFFFFF3F3F3E7FF51
:102BD000FFFFFFFFFFFFFFFFFF01FFFFFFFFFFFF03
:102BE000FFFFFFFFFFFFFFFFFFFFFFFFE7E7FFFF25
:102BF000FFFFFFFFFFFFFDF9F3E7CF9F3F7FFFFFE1
:102C0000FFFFFFFF83393931210919393983FFFF6C
:102C1000FFFFFFFFE787E7E7E7E7E7E7E781FFFF7A
:102C2000FFFFFFFF833939F9F3E7CF9F3901FFFF3A
:102C3000FFFFFFFF8339F9F9C3F9F9F93983FFFF82
:102C4000FFFFFFFFF3E3C393333301F3F3E1FFFF30
:102C5000FFFFFFFF013F3F3F03F9F9F93983FFFF12
:102C6000FFFFFFFF83393F3F033939393983FFFFC6
:102C7000FFFFFFFF0139F9F3E7CFCFCFCFCFFFFF42
:102C8000FFFFFFFF83393939833939393983FFFF32
:102C9000FFFFFFFF833939393981F9F93983FFFFA4
:102CA000FFFFFFFFFFFFFFF3F3FFFFF3F3FFFFFF64
:102CB000FFFFFFFFFFFFFFF3F3FFFFF3F3F3E7FF78
:102CC000FFFFFFFFFFF3E7CF9F3F9FCFE7F3FFFF3C
:102CD000FFFFFFFFFFFFFFFF01FF01FFFFFFFFFF00
:102CE000FFFFFFFFFF9FCFE7F3F9F3E7CF9FFFFF62
:102CF000FFFFFFFF833939F3E7E7E7FFE7E7FFFF70
:102D0000FFFFFFFF83393939212121233F81FFFF55
:102D1000FFFFFFFFC7933939390139393939FFFFCF
:102D2000FFFFFFFF03999999839999999903FFFFF1
:102D3000FFFFFFFFC3993D3F3F3F3F3D99C3FFFF6B
:102D4000FFFFFFFF07939999999999999307FFFFBF
:102D5000FFFFFFFF01999F9B839B9F9F9901FFFFAF
:102D6000FFFFFFFF01999F9B839B9F9F9F0FFFFF8B
:102D7000FFFFFFFF8339393F3F3F31393983FFFF81
:102D8000FFFFFFFF39393939013939393939FFFF47
:102D9000FFFFFFFFC3E7E7E7E7E7E7E7E7C3FFFF7B
:102DA000FFFFFFFFC3E7E7E7E7E7E727278FFFFF1F
:102DB000FFFFFFFF393933270F0F27333939FFFF63
:102DC000FFFFFFFF0F9F9F9F9F9F9F9D9901FFFF09
:102DD000FFFFFFFF39391111012929293939FFFF77
:102DE000FFFFFFFF39391919092131313939FFFF47
:102DF000FFFFFFFF83393939393939393983FFFF0B
:102E0000FFFFFFFF0399999999839F9F9F0FFFFFF2
:102E1000FFFFFFFF83393939393939292983F9FF10
:102E2000FFFFFFFF03999999838793999919FFFFF2
:102E3000FFFFFFFF83393F3F8FE3F9F93983FFFF3E
:102E4000FFFFFFFF81A5E7E7E7E7E7E7E7C3FFFF4E
:102E5000FFFFFFFF39393939393939393983FFFFF4
:102E6000FFFFFFFF3939393939393993C7EFFFFF90
:102E7000FFFFFFFF39393929292901113939FFFFAE
:102E8000FFFFFFFF39393993C7C793393939FFFF3E
:102E9000FFFFFFFF9999999999C3E7E7E7C3FFFF00
:102EA000FFFFFFFF013979F3E7CF9F3D3901FFFFB6
:102EB000FFFFFFFF839F9F9F9F9F9F9F9F83FFFF1A
:102EC000FFFFFFFFFFFF7F3F9FCFE7F3F9FDFFFF0E
:102ED000FFFFFFFF83F3F3F3F3F3F3F3F383FFFF5A
:102EE000FFFFFFEFC79339FFFFFFFFFFFFFFFFFF6C
:102EF000FFFFFFFFFFFFFFFFFFFFFFFFFFFFFF00E1
:102F0000FFFFFFE7E7E7F3FFFFFFFFFFFFFFFFFF25
:102F1000FFFFFFFFFFFFFF87F38333332389FFFFAB
:102F2000FFFFFFFF1F9F9F83999999999903FFFFC7
:102F3000FFFFFFFFFFFFFF83393F3F3F3983FFFF65
:102F4000FFFFFFFFE3F3F383333333333381FFFFBB
:102F5000FFFFFFFFFFFFFF833939013F3983FFFF89
:102F6000FFFFFFFFE3C9CFCF03CFCFCFCF87FFFF57
:102F7000FFFFFFFFFFFFFF893139393189F93983BD
:102F8000FFFFFFFF1F9F9F83999999999919FFFF51
:102F9000FFFFFFFFE7E7FFC7E7E7E7E7E7C3FFFF5D
:102FA000FFFFFFFFF3F3FFE3F3F3F3F3F3333387B1
:102FB000FFFFFFFF1F9F9F99999387939919FFFF29
:102FC000FFFFFFFFE7E7E7E7E7E7E7E7E7E3FFFF05
:102FD000FFFFFFFFFFFFFF93012929393939FFFF69
:102FE000FFFFFFFFFFFFFF23999999999999FFFF31
:102FF000FFFFFFFFFFFFFF83393939393983FFFFB7
:10300000FFFFFFFFFFFFFF2399999999839F9F0F70
:10301000FFFFFFFFFFFFFF893333333383F3F3E118
:10302000FFFFFFFFFFFFFF23999F9F9F9F0FFFFF62
:10303000FFFFFFFFFFFFFF83393F83F93983FFFF66
:10304000FFFFFFFFCFCFCF03CFCFCFCFC9E3FFFF2E
:10305000FFFFFFFFFFFFFF33333333333389FFFFBE
:10306000FFFFFFFFFFFFFF3939393993C7EFFFFF3C
:10307000FFFFFFFFFFFFFF39392929290193FFFFD8
:10308000FFFFFFFFFFFFFF393993C7933939FFFF78
:10309000FFFFFFFFFFFFFF393939393189F93983E4
:1030A000FFFFFFFFFFFFFF0179F3E7CF9D01FFFF68
:1030B000FFFFFFFFF1E7E7E78FE7E7E7E7F1FFFF54
:1030C000FFFFFFFFE7E7E7E7FFE7E7E7E7E7FFFFE8
:1030D000FFFFFFFF8FE7E7E7F1E7E7E7E78FFFFF96
:1030E000FFFFFFFF8923FFFFFFFFFFFFFFFFFFFF42
:1030F000FFFFFF3F5F5F5F3FC7DFCFDFC7F7F7F738
:10310000F1FF00002100000030000000310000004D
:1031100032000000330000003400000035000000E1
:1031200036000000370000003800000039000000C1
:10313000400000004F4100004F4200004F4300009C
:103140004F4400005B317E005B327E005B337E00CB
:103150005B347E005B357E005B367E008C3200087F
:1031600000000020D4000000F800000860330008D0
:10317000D4000020340C00001401000810010000ED
:1031800043000000F8FFFFFF004040404040404047
:10319000404041414141414040404040404040402A
:1031A00040404040404040404005020202020202CE
:1031B000020202020202020202202020202020201D
:1031C0002020200202020202020290909090909031
:1031D00010101010101010101010101010101010EF
:1031E0001010101002020202020288888888888863
:1031F000080808080808080808080808080808084F
:103200000808080802020202400000000000000056
:1032100000000000000000000000000000000000AE
:10322000000000000000000000000000000000009E
:10323000000000000000000000000000000000008E
:10324000000000000000000000000000000000007E
:10325000000000000000000000000000000000006E
:10326000000000000000000000000000000000005E
:10327000000000000000000000000000000000004E
:1032800000000000000000000000000000003F00FF
:10329000000000000000000000000000000000002E
:1032A000000000000000000000000000000000001E
:1032B000000000000000000000000000000000000E
:1032C00000000000000000000000000000000000FE
:1032D000000F0000000000000000000000000000DF
:1032E00000000000000000000000000003000000DB
:1032F000000000000C3100081031000814310008F3
:10330000183100081C310008203100082431000861
:10331000283100082C310008083100080431000869
:1033200030310008443100083431000854310008BD
:10333000403100083C3100085031000838310008A5
:1033400058310008483100084C31000800000000E6
:10335000000000000000000000000000000000006D
:04000005080000B53A
:00000001FF
